{
  "_format": "hh-sol-artifact-1",
  "contractName": "GameNFT",
  "sourceName": "contracts/GameNFT.sol",
  "abi": [
    {
      "inputs": [],
      "stateMutability": "nonpayable",
      "type": "constructor"
    },
    {
      "anonymous": false,
      "inputs": [
        {
          "indexed": true,
          "internalType": "address",
          "name": "owner",
          "type": "address"
        },
        {
          "indexed": true,
          "internalType": "address",
          "name": "approved",
          "type": "address"
        },
        {
          "indexed": true,
          "internalType": "uint256",
          "name": "tokenId",
          "type": "uint256"
        }
      ],
      "name": "Approval",
      "type": "event"
    },
    {
      "anonymous": false,
      "inputs": [
        {
          "indexed": true,
          "internalType": "address",
          "name": "owner",
          "type": "address"
        },
        {
          "indexed": true,
          "internalType": "address",
          "name": "operator",
          "type": "address"
        },
        {
          "indexed": false,
          "internalType": "bool",
          "name": "approved",
          "type": "bool"
        }
      ],
      "name": "ApprovalForAll",
      "type": "event"
    },
    {
      "anonymous": false,
      "inputs": [
        {
          "indexed": false,
          "internalType": "address",
          "name": "owner",
          "type": "address"
        },
        {
          "indexed": false,
          "internalType": "uint256",
          "name": "tokenId",
          "type": "uint256"
        },
        {
          "indexed": false,
          "internalType": "string",
          "name": "_tokenURI",
          "type": "string"
        },
        {
          "components": [
            {
              "internalType": "uint256",
              "name": "tokenId",
              "type": "uint256"
            },
            {
              "internalType": "string",
              "name": "assetHash",
              "type": "string"
            },
            {
              "components": [
                {
                  "internalType": "uint256",
                  "name": "intelligence",
                  "type": "uint256"
                },
                {
                  "internalType": "uint256",
                  "name": "power",
                  "type": "uint256"
                },
                {
                  "internalType": "uint256",
                  "name": "speed",
                  "type": "uint256"
                },
                {
                  "internalType": "uint256",
                  "name": "strategy",
                  "type": "uint256"
                },
                {
                  "internalType": "uint256",
                  "name": "strength",
                  "type": "uint256"
                },
                {
                  "internalType": "uint256",
                  "name": "cardPower",
                  "type": "uint256"
                },
                {
                  "internalType": "uint256",
                  "name": "boosterPower",
                  "type": "uint256"
                }
              ],
              "internalType": "struct XeriansNFT.Skill",
              "name": "skills",
              "type": "tuple"
            },
            {
              "internalType": "uint32",
              "name": "readyTime",
              "type": "uint32"
            },
            {
              "internalType": "string",
              "name": "status",
              "type": "string"
            }
          ],
          "indexed": false,
          "internalType": "struct XeriansNFT.Xerian",
          "name": "_xerian",
          "type": "tuple"
        }
      ],
      "name": "GeneratedXerian",
      "type": "event"
    },
    {
      "anonymous": false,
      "inputs": [
        {
          "indexed": true,
          "internalType": "address",
          "name": "previousOwner",
          "type": "address"
        },
        {
          "indexed": true,
          "internalType": "address",
          "name": "newOwner",
          "type": "address"
        }
      ],
      "name": "OwnershipTransferred",
      "type": "event"
    },
    {
      "anonymous": false,
      "inputs": [
        {
          "indexed": false,
          "internalType": "address",
          "name": "from",
          "type": "address"
        },
        {
          "components": [
            {
              "internalType": "uint256",
              "name": "tokenId",
              "type": "uint256"
            },
            {
              "internalType": "string",
              "name": "assetHash",
              "type": "string"
            },
            {
              "components": [
                {
                  "internalType": "uint256",
                  "name": "intelligence",
                  "type": "uint256"
                },
                {
                  "internalType": "uint256",
                  "name": "power",
                  "type": "uint256"
                },
                {
                  "internalType": "uint256",
                  "name": "speed",
                  "type": "uint256"
                },
                {
                  "internalType": "uint256",
                  "name": "strategy",
                  "type": "uint256"
                },
                {
                  "internalType": "uint256",
                  "name": "strength",
                  "type": "uint256"
                },
                {
                  "internalType": "uint256",
                  "name": "cardPower",
                  "type": "uint256"
                },
                {
                  "internalType": "uint256",
                  "name": "boosterPower",
                  "type": "uint256"
                }
              ],
              "internalType": "struct XeriansNFT.Skill",
              "name": "skills",
              "type": "tuple"
            },
            {
              "internalType": "uint32",
              "name": "readyTime",
              "type": "uint32"
            },
            {
              "internalType": "string",
              "name": "status",
              "type": "string"
            }
          ],
          "indexed": false,
          "internalType": "struct XeriansNFT.Xerian",
          "name": "_xerian",
          "type": "tuple"
        }
      ],
      "name": "StakedXerian",
      "type": "event"
    },
    {
      "anonymous": false,
      "inputs": [
        {
          "indexed": true,
          "internalType": "address",
          "name": "from",
          "type": "address"
        },
        {
          "indexed": true,
          "internalType": "address",
          "name": "to",
          "type": "address"
        },
        {
          "indexed": true,
          "internalType": "uint256",
          "name": "tokenId",
          "type": "uint256"
        }
      ],
      "name": "Transfer",
      "type": "event"
    },
    {
      "inputs": [
        {
          "internalType": "address",
          "name": "_wallet",
          "type": "address"
        }
      ],
      "name": "_addPresalesList",
      "outputs": [],
      "stateMutability": "nonpayable",
      "type": "function"
    },
    {
      "inputs": [
        {
          "internalType": "address",
          "name": "_holder",
          "type": "address"
        }
      ],
      "name": "_addWhitelist",
      "outputs": [],
      "stateMutability": "nonpayable",
      "type": "function"
    },
    {
      "inputs": [
        {
          "internalType": "address",
          "name": "_holder",
          "type": "address"
        }
      ],
      "name": "_delWhitelist",
      "outputs": [],
      "stateMutability": "nonpayable",
      "type": "function"
    },
    {
      "inputs": [
        {
          "internalType": "bool",
          "name": "_status",
          "type": "bool"
        }
      ],
      "name": "_enableMinting",
      "outputs": [],
      "stateMutability": "nonpayable",
      "type": "function"
    },
    {
      "inputs": [
        {
          "internalType": "bool",
          "name": "_status",
          "type": "bool"
        }
      ],
      "name": "_enablePresale",
      "outputs": [],
      "stateMutability": "nonpayable",
      "type": "function"
    },
    {
      "inputs": [
        {
          "internalType": "bool",
          "name": "_status",
          "type": "bool"
        }
      ],
      "name": "_enableStaking",
      "outputs": [],
      "stateMutability": "nonpayable",
      "type": "function"
    },
    {
      "inputs": [
        {
          "internalType": "bool",
          "name": "_status",
          "type": "bool"
        }
      ],
      "name": "_pause",
      "outputs": [],
      "stateMutability": "nonpayable",
      "type": "function"
    },
    {
      "inputs": [
        {
          "internalType": "uint256",
          "name": "tokenId",
          "type": "uint256"
        }
      ],
      "name": "_resetCooldown",
      "outputs": [],
      "stateMutability": "nonpayable",
      "type": "function"
    },
    {
      "inputs": [
        {
          "internalType": "uint256",
          "name": "_mintFee",
          "type": "uint256"
        }
      ],
      "name": "_setMintFees",
      "outputs": [],
      "stateMutability": "nonpayable",
      "type": "function"
    },
    {
      "inputs": [
        {
          "internalType": "address",
          "name": "_address",
          "type": "address"
        }
      ],
      "name": "_setPayableAdress",
      "outputs": [],
      "stateMutability": "nonpayable",
      "type": "function"
    },
    {
      "inputs": [
        {
          "internalType": "uint256",
          "name": "_limit",
          "type": "uint256"
        }
      ],
      "name": "_setPresalesLimit",
      "outputs": [],
      "stateMutability": "nonpayable",
      "type": "function"
    },
    {
      "inputs": [
        {
          "internalType": "uint256",
          "name": "tokenId",
          "type": "uint256"
        },
        {
          "internalType": "string",
          "name": "_tokenURI",
          "type": "string"
        }
      ],
      "name": "_setTokenURIX",
      "outputs": [],
      "stateMutability": "nonpayable",
      "type": "function"
    },
    {
      "inputs": [
        {
          "internalType": "uint256",
          "name": "",
          "type": "uint256"
        },
        {
          "internalType": "uint256",
          "name": "",
          "type": "uint256"
        }
      ],
      "name": "_tokenHistory",
      "outputs": [
        {
          "internalType": "address",
          "name": "",
          "type": "address"
        }
      ],
      "stateMutability": "view",
      "type": "function"
    },
    {
      "inputs": [],
      "name": "_withdraw",
      "outputs": [],
      "stateMutability": "nonpayable",
      "type": "function"
    },
    {
      "inputs": [
        {
          "internalType": "address",
          "name": "to",
          "type": "address"
        },
        {
          "internalType": "uint256",
          "name": "tokenId",
          "type": "uint256"
        }
      ],
      "name": "approve",
      "outputs": [],
      "stateMutability": "nonpayable",
      "type": "function"
    },
    {
      "inputs": [
        {
          "internalType": "address",
          "name": "owner",
          "type": "address"
        }
      ],
      "name": "balanceOf",
      "outputs": [
        {
          "internalType": "uint256",
          "name": "",
          "type": "uint256"
        }
      ],
      "stateMutability": "view",
      "type": "function"
    },
    {
      "inputs": [],
      "name": "enabledServices",
      "outputs": [
        {
          "internalType": "bool",
          "name": "",
          "type": "bool"
        },
        {
          "internalType": "bool",
          "name": "",
          "type": "bool"
        },
        {
          "internalType": "bool",
          "name": "",
          "type": "bool"
        }
      ],
      "stateMutability": "view",
      "type": "function"
    },
    {
      "inputs": [],
      "name": "getAllXerians",
      "outputs": [
        {
          "components": [
            {
              "internalType": "uint256",
              "name": "tokenId",
              "type": "uint256"
            },
            {
              "internalType": "string",
              "name": "assetHash",
              "type": "string"
            },
            {
              "components": [
                {
                  "internalType": "uint256",
                  "name": "intelligence",
                  "type": "uint256"
                },
                {
                  "internalType": "uint256",
                  "name": "power",
                  "type": "uint256"
                },
                {
                  "internalType": "uint256",
                  "name": "speed",
                  "type": "uint256"
                },
                {
                  "internalType": "uint256",
                  "name": "strategy",
                  "type": "uint256"
                },
                {
                  "internalType": "uint256",
                  "name": "strength",
                  "type": "uint256"
                },
                {
                  "internalType": "uint256",
                  "name": "cardPower",
                  "type": "uint256"
                },
                {
                  "internalType": "uint256",
                  "name": "boosterPower",
                  "type": "uint256"
                }
              ],
              "internalType": "struct XeriansNFT.Skill",
              "name": "skills",
              "type": "tuple"
            },
            {
              "internalType": "uint32",
              "name": "readyTime",
              "type": "uint32"
            },
            {
              "internalType": "string",
              "name": "status",
              "type": "string"
            }
          ],
          "internalType": "struct XeriansNFT.Xerian[]",
          "name": "",
          "type": "tuple[]"
        }
      ],
      "stateMutability": "view",
      "type": "function"
    },
    {
      "inputs": [
        {
          "internalType": "uint256",
          "name": "tokenId",
          "type": "uint256"
        }
      ],
      "name": "getApproved",
      "outputs": [
        {
          "internalType": "address",
          "name": "",
          "type": "address"
        }
      ],
      "stateMutability": "view",
      "type": "function"
    },
    {
      "inputs": [],
      "name": "getBalance",
      "outputs": [
        {
          "internalType": "uint256",
          "name": "",
          "type": "uint256"
        }
      ],
      "stateMutability": "view",
      "type": "function"
    },
    {
      "inputs": [
        {
          "internalType": "uint256",
          "name": "tokenId",
          "type": "uint256"
        }
      ],
      "name": "getXerian",
      "outputs": [
        {
          "components": [
            {
              "internalType": "uint256",
              "name": "tokenId",
              "type": "uint256"
            },
            {
              "internalType": "string",
              "name": "assetHash",
              "type": "string"
            },
            {
              "components": [
                {
                  "internalType": "uint256",
                  "name": "intelligence",
                  "type": "uint256"
                },
                {
                  "internalType": "uint256",
                  "name": "power",
                  "type": "uint256"
                },
                {
                  "internalType": "uint256",
                  "name": "speed",
                  "type": "uint256"
                },
                {
                  "internalType": "uint256",
                  "name": "strategy",
                  "type": "uint256"
                },
                {
                  "internalType": "uint256",
                  "name": "strength",
                  "type": "uint256"
                },
                {
                  "internalType": "uint256",
                  "name": "cardPower",
                  "type": "uint256"
                },
                {
                  "internalType": "uint256",
                  "name": "boosterPower",
                  "type": "uint256"
                }
              ],
              "internalType": "struct XeriansNFT.Skill",
              "name": "skills",
              "type": "tuple"
            },
            {
              "internalType": "uint32",
              "name": "readyTime",
              "type": "uint32"
            },
            {
              "internalType": "string",
              "name": "status",
              "type": "string"
            }
          ],
          "internalType": "struct XeriansNFT.Xerian",
          "name": "",
          "type": "tuple"
        }
      ],
      "stateMutability": "view",
      "type": "function"
    },
    {
      "inputs": [
        {
          "internalType": "uint256",
          "name": "_tokenId",
          "type": "uint256"
        }
      ],
      "name": "getXerianLogs",
      "outputs": [
        {
          "internalType": "address[]",
          "name": "",
          "type": "address[]"
        }
      ],
      "stateMutability": "view",
      "type": "function"
    },
    {
      "inputs": [
        {
          "internalType": "address",
          "name": "recipient",
          "type": "address"
        },
        {
          "internalType": "string",
          "name": "tokenURI_",
          "type": "string"
        }
      ],
      "name": "giftXerian",
      "outputs": [],
      "stateMutability": "nonpayable",
      "type": "function"
    },
    {
      "inputs": [
        {
          "internalType": "address",
          "name": "owner",
          "type": "address"
        },
        {
          "internalType": "address",
          "name": "operator",
          "type": "address"
        }
      ],
      "name": "isApprovedForAll",
      "outputs": [
        {
          "internalType": "bool",
          "name": "",
          "type": "bool"
        }
      ],
      "stateMutability": "view",
      "type": "function"
    },
    {
      "inputs": [
        {
          "internalType": "address",
          "name": "addr",
          "type": "address"
        }
      ],
      "name": "isDelegate",
      "outputs": [
        {
          "internalType": "bool",
          "name": "",
          "type": "bool"
        }
      ],
      "stateMutability": "view",
      "type": "function"
    },
    {
      "inputs": [],
      "name": "joinPresales",
      "outputs": [],
      "stateMutability": "payable",
      "type": "function"
    },
    {
      "inputs": [],
      "name": "name",
      "outputs": [
        {
          "internalType": "string",
          "name": "",
          "type": "string"
        }
      ],
      "stateMutability": "view",
      "type": "function"
    },
    {
      "inputs": [],
      "name": "owner",
      "outputs": [
        {
          "internalType": "address",
          "name": "",
          "type": "address"
        }
      ],
      "stateMutability": "view",
      "type": "function"
    },
    {
      "inputs": [
        {
          "internalType": "uint256",
          "name": "tokenId",
          "type": "uint256"
        }
      ],
      "name": "ownerOf",
      "outputs": [
        {
          "internalType": "address",
          "name": "",
          "type": "address"
        }
      ],
      "stateMutability": "view",
      "type": "function"
    },
    {
      "inputs": [
        {
          "internalType": "string",
          "name": "tokenURI_",
          "type": "string"
        }
      ],
      "name": "publicMint",
      "outputs": [],
      "stateMutability": "payable",
      "type": "function"
    },
    {
      "inputs": [],
      "name": "renounceOwnership",
      "outputs": [],
      "stateMutability": "nonpayable",
      "type": "function"
    },
    {
      "inputs": [
        {
          "internalType": "address",
          "name": "from",
          "type": "address"
        },
        {
          "internalType": "address",
          "name": "to",
          "type": "address"
        },
        {
          "internalType": "uint256",
          "name": "tokenId",
          "type": "uint256"
        }
      ],
      "name": "safeTransferFrom",
      "outputs": [],
      "stateMutability": "nonpayable",
      "type": "function"
    },
    {
      "inputs": [
        {
          "internalType": "address",
          "name": "from",
          "type": "address"
        },
        {
          "internalType": "address",
          "name": "to",
          "type": "address"
        },
        {
          "internalType": "uint256",
          "name": "tokenId",
          "type": "uint256"
        },
        {
          "internalType": "bytes",
          "name": "_data",
          "type": "bytes"
        }
      ],
      "name": "safeTransferFrom",
      "outputs": [],
      "stateMutability": "nonpayable",
      "type": "function"
    },
    {
      "inputs": [
        {
          "internalType": "address",
          "name": "operator",
          "type": "address"
        },
        {
          "internalType": "bool",
          "name": "approved",
          "type": "bool"
        }
      ],
      "name": "setApprovalForAll",
      "outputs": [],
      "stateMutability": "nonpayable",
      "type": "function"
    },
    {
      "inputs": [
        {
          "internalType": "string",
          "name": "baseURI_",
          "type": "string"
        }
      ],
      "name": "setBaseURI",
      "outputs": [],
      "stateMutability": "nonpayable",
      "type": "function"
    },
    {
      "inputs": [
        {
          "internalType": "uint256",
          "name": "_decimals",
          "type": "uint256"
        }
      ],
      "name": "setDecimals",
      "outputs": [],
      "stateMutability": "nonpayable",
      "type": "function"
    },
    {
      "inputs": [
        {
          "internalType": "address",
          "name": "addr",
          "type": "address"
        },
        {
          "internalType": "bool",
          "name": "isDelegate_",
          "type": "bool"
        }
      ],
      "name": "setDelegate",
      "outputs": [],
      "stateMutability": "nonpayable",
      "type": "function"
    },
    {
      "inputs": [
        {
          "internalType": "bytes4",
          "name": "interfaceId",
          "type": "bytes4"
        }
      ],
      "name": "supportsInterface",
      "outputs": [
        {
          "internalType": "bool",
          "name": "",
          "type": "bool"
        }
      ],
      "stateMutability": "view",
      "type": "function"
    },
    {
      "inputs": [],
      "name": "symbol",
      "outputs": [
        {
          "internalType": "string",
          "name": "",
          "type": "string"
        }
      ],
      "stateMutability": "view",
      "type": "function"
    },
    {
      "inputs": [
        {
          "internalType": "uint256",
          "name": "index",
          "type": "uint256"
        }
      ],
      "name": "tokenByIndex",
      "outputs": [
        {
          "internalType": "uint256",
          "name": "",
          "type": "uint256"
        }
      ],
      "stateMutability": "view",
      "type": "function"
    },
    {
      "inputs": [
        {
          "internalType": "uint256",
          "name": "",
          "type": "uint256"
        }
      ],
      "name": "tokenLogCnt",
      "outputs": [
        {
          "internalType": "uint256",
          "name": "",
          "type": "uint256"
        }
      ],
      "stateMutability": "view",
      "type": "function"
    },
    {
      "inputs": [
        {
          "internalType": "address",
          "name": "owner",
          "type": "address"
        },
        {
          "internalType": "uint256",
          "name": "index",
          "type": "uint256"
        }
      ],
      "name": "tokenOfOwnerByIndex",
      "outputs": [
        {
          "internalType": "uint256",
          "name": "",
          "type": "uint256"
        }
      ],
      "stateMutability": "view",
      "type": "function"
    },
    {
      "inputs": [
        {
          "internalType": "uint256",
          "name": "tokenId",
          "type": "uint256"
        }
      ],
      "name": "tokenURI",
      "outputs": [
        {
          "internalType": "string",
          "name": "",
          "type": "string"
        }
      ],
      "stateMutability": "view",
      "type": "function"
    },
    {
      "inputs": [],
      "name": "tokensOfOwner",
      "outputs": [
        {
          "components": [
            {
              "internalType": "uint256",
              "name": "tokenId",
              "type": "uint256"
            },
            {
              "internalType": "string",
              "name": "assetHash",
              "type": "string"
            },
            {
              "components": [
                {
                  "internalType": "uint256",
                  "name": "intelligence",
                  "type": "uint256"
                },
                {
                  "internalType": "uint256",
                  "name": "power",
                  "type": "uint256"
                },
                {
                  "internalType": "uint256",
                  "name": "speed",
                  "type": "uint256"
                },
                {
                  "internalType": "uint256",
                  "name": "strategy",
                  "type": "uint256"
                },
                {
                  "internalType": "uint256",
                  "name": "strength",
                  "type": "uint256"
                },
                {
                  "internalType": "uint256",
                  "name": "cardPower",
                  "type": "uint256"
                },
                {
                  "internalType": "uint256",
                  "name": "boosterPower",
                  "type": "uint256"
                }
              ],
              "internalType": "struct XeriansNFT.Skill",
              "name": "skills",
              "type": "tuple"
            },
            {
              "internalType": "uint32",
              "name": "readyTime",
              "type": "uint32"
            },
            {
              "internalType": "string",
              "name": "status",
              "type": "string"
            }
          ],
          "internalType": "struct XeriansNFT.Xerian[]",
          "name": "",
          "type": "tuple[]"
        }
      ],
      "stateMutability": "view",
      "type": "function"
    },
    {
      "inputs": [],
      "name": "totalSupply",
      "outputs": [
        {
          "internalType": "uint256",
          "name": "",
          "type": "uint256"
        }
      ],
      "stateMutability": "view",
      "type": "function"
    },
    {
      "inputs": [
        {
          "internalType": "address",
          "name": "from",
          "type": "address"
        },
        {
          "internalType": "address",
          "name": "to",
          "type": "address"
        },
        {
          "internalType": "uint256",
          "name": "tokenId",
          "type": "uint256"
        }
      ],
      "name": "transferFrom",
      "outputs": [],
      "stateMutability": "nonpayable",
      "type": "function"
    },
    {
      "inputs": [
        {
          "internalType": "address",
          "name": "newOwner",
          "type": "address"
        }
      ],
      "name": "transferOwnership",
      "outputs": [],
      "stateMutability": "nonpayable",
      "type": "function"
    }
  ],
  "bytecode": "0x60806040523480156200001157600080fd5b506200005d6040518060400160405280601981526020017f4920414d20534d41525420434f4e54524143542e20504f472e000000000000008152506200006360201b620003b21760201c565b620001f7565b62000103816040516024016200007a919062000170565b6040516020818303038152906040527f41304fac000000000000000000000000000000000000000000000000000000007bffffffffffffffffffffffffffffffffffffffffffffffffffffffff19166020820180517bffffffffffffffffffffffffffffffffffffffffffffffffffffffff83818316178352505050506200010660201b60201c565b50565b60008151905060006a636f6e736f6c652e6c6f679050602083016000808483855afa5050505050565b60006200013c8262000194565b6200014881856200019f565b93506200015a818560208601620001b0565b6200016581620001e6565b840191505092915050565b600060208201905081810360008301526200018c81846200012f565b905092915050565b600081519050919050565b600082825260208201905092915050565b60005b83811015620001d0578082015181840152602081019050620001b3565b83811115620001e0576000848401525b50505050565b6000601f19601f8301169050919050565b610c2780620002076000396000f3fe608060405234801561001057600080fd5b50600436106100415760003560e01c8063449d46c0146100465780639a2cdc0814610062578063bd43a90814610080575b600080fd5b610060600480360381019061005b91906106ba565b61009e565b005b61006a610216565b604051610077919061093b565b60405180910390f35b610088610261565b6040516100959190610882565b60405180910390f35b60016000808282546100b09190610a4d565b925050819055506100f76040518060400160405280601681526020017f257320776176656420772f206d65737361676520257300000000000000000000815250338361044b565b600160405180606001604052803373ffffffffffffffffffffffffffffffffffffffff16815260200183815260200142815250908060018154018082558091505060019003906000526020600020906003020160009091909190915060008201518160000160006101000a81548173ffffffffffffffffffffffffffffffffffffffff021916908373ffffffffffffffffffffffffffffffffffffffff16021790555060208201518160010190805190602001906101b69291906105af565b506040820151816002015550503373ffffffffffffffffffffffffffffffffffffffff167f5f7e16dc676677766a70e9c5628aa6c54ddb8b6e5188e2ae1e1f17f1ffbea716428360405161020b929190610956565b60405180910390a250565b60006102596040518060400160405280601781526020017f5765206861766520256420746f74616c207761766573210000000000000000008152506000546104ea565b600054905090565b60606001805480602002602001604051908101604052809291908181526020016000905b828210156103a957838290600052602060002090600302016040518060600160405290816000820160009054906101000a900473ffffffffffffffffffffffffffffffffffffffff1673ffffffffffffffffffffffffffffffffffffffff1673ffffffffffffffffffffffffffffffffffffffff16815260200160018201805461030e90610b21565b80601f016020809104026020016040519081016040528092919081815260200182805461033a90610b21565b80156103875780601f1061035c57610100808354040283529160200191610387565b820191906000526020600020905b81548152906001019060200180831161036a57829003601f168201915b5050505050815260200160028201548152505081526020019060010190610285565b50505050905090565b610448816040516024016103c691906108a4565b6040516020818303038152906040527f41304fac000000000000000000000000000000000000000000000000000000007bffffffffffffffffffffffffffffffffffffffffffffffffffffffff19166020820180517bffffffffffffffffffffffffffffffffffffffffffffffffffffffff8381831617835250505050610586565b50565b6104e5838383604051602401610463939291906108c6565b6040516020818303038152906040527fe0e9ad4f000000000000000000000000000000000000000000000000000000007bffffffffffffffffffffffffffffffffffffffffffffffffffffffff19166020820180517bffffffffffffffffffffffffffffffffffffffffffffffffffffffff8381831617835250505050610586565b505050565b610582828260405160240161050092919061090b565b6040516020818303038152906040527f9710a9d0000000000000000000000000000000000000000000000000000000007bffffffffffffffffffffffffffffffffffffffffffffffffffffffff19166020820180517bffffffffffffffffffffffffffffffffffffffffffffffffffffffff8381831617835250505050610586565b5050565b60008151905060006a636f6e736f6c652e6c6f679050602083016000808483855afa5050505050565b8280546105bb90610b21565b90600052602060002090601f0160209004810192826105dd5760008555610624565b82601f106105f657805160ff1916838001178555610624565b82800160010185558215610624579182015b82811115610623578251825591602001919060010190610608565b5b5090506106319190610635565b5090565b5b8082111561064e576000816000905550600101610636565b5090565b6000610665610660846109b7565b610986565b90508281526020810184848401111561067d57600080fd5b610688848285610adf565b509392505050565b600082601f8301126106a157600080fd5b81356106b1848260208601610652565b91505092915050565b6000602082840312156106cc57600080fd5b600082013567ffffffffffffffff8111156106e657600080fd5b6106f284828501610690565b91505092915050565b60006107078383610814565b905092915050565b61071881610aa3565b82525050565b61072781610aa3565b82525050565b6000610738826109f7565b6107428185610a1a565b935083602082028501610754856109e7565b8060005b85811015610790578484038952815161077185826106fb565b945061077c83610a0d565b925060208a01995050600181019050610758565b50829750879550505050505092915050565b60006107ad82610a02565b6107b78185610a2b565b93506107c7818560208601610aee565b6107d081610be0565b840191505092915050565b60006107e682610a02565b6107f08185610a3c565b9350610800818560208601610aee565b61080981610be0565b840191505092915050565b600060608301600083015161082c600086018261070f565b506020830151848203602086015261084482826107a2565b91505060408301516108596040860182610864565b508091505092915050565b61086d81610ad5565b82525050565b61087c81610ad5565b82525050565b6000602082019050818103600083015261089c818461072d565b905092915050565b600060208201905081810360008301526108be81846107db565b905092915050565b600060608201905081810360008301526108e081866107db565b90506108ef602083018561071e565b818103604083015261090181846107db565b9050949350505050565b6000604082019050818103600083015261092581856107db565b90506109346020830184610873565b9392505050565b60006020820190506109506000830184610873565b92915050565b600060408201905061096b6000830185610873565b818103602083015261097d81846107db565b90509392505050565b6000604051905081810181811067ffffffffffffffff821117156109ad576109ac610bb1565b5b8060405250919050565b600067ffffffffffffffff8211156109d2576109d1610bb1565b5b601f19601f8301169050602081019050919050565b6000819050602082019050919050565b600081519050919050565b600081519050919050565b6000602082019050919050565b600082825260208201905092915050565b600082825260208201905092915050565b600082825260208201905092915050565b6000610a5882610ad5565b9150610a6383610ad5565b9250827fffffffffffffffffffffffffffffffffffffffffffffffffffffffffffffffff03821115610a9857610a97610b53565b5b828201905092915050565b6000610aae82610ab5565b9050919050565b600073ffffffffffffffffffffffffffffffffffffffff82169050919050565b6000819050919050565b82818337600083830152505050565b60005b83811015610b0c578082015181840152602081019050610af1565b83811115610b1b576000848401525b50505050565b60006002820490506001821680610b3957607f821691505b60208210811415610b4d57610b4c610b82565b5b50919050565b7f4e487b7100000000000000000000000000000000000000000000000000000000600052601160045260246000fd5b7f4e487b7100000000000000000000000000000000000000000000000000000000600052602260045260246000fd5b7f4e487b7100000000000000000000000000000000000000000000000000000000600052604160045260246000fd5b6000601f19601f830116905091905056fea264697066735822122009980bc86d5afc1514fef9566bdbc217a817b4b0f146baf3533f3732f24189d064736f6c63430008000033",
  "deployedBytecode": "0x6080604052600436106102345760003560e01c80637e5cd5c11161012e578063ca4b208b116100ab578063e797ec1b1161006f578063e797ec1b146108cd578063e7cd4a04146108e4578063e985e9c51461090d578063eac3d07d1461094a578063f2fde38b1461097357610274565b8063ca4b208b146107e8578063ce7c2ac214610813578063cef3ebf214610850578063d211490114610879578063e33b7de3146108a257610274565b80639d043593116100f25780639d043593146106f3578063a22cb46514610730578063aaf8042b14610759578063b88d4fde14610782578063c87b56dd146107ab57610274565b80637e5cd5c11461060c5780638b83209b146106235780638da5cb5b1461066057806395d89b411461068b5780639852595c146106b657610274565b806323b872dd116101bc578063532eba6511610180578063532eba65146105125780636352211e1461055257806364cb4edb1461058f57806370a08231146105b8578063715018a6146105f557610274565b806323b872dd1461046257806326092b831461048b5780633a98ef391461049557806342842e0e146104c05780634a994eef146104e957610274565b8063081812fc11610203578063081812fc1461037d578063095ea7b3146103ba57806312065fe0146103e357806318160ddd1461040e578063191655871461043957610274565b806301ffc9a7146102af57806306b6f7e9146102ec57806306fdde0314610315578063077796271461034057610274565b36610274577f6ef95f06320e7a25a04a175ca677b7052bdd97131872c2192525a629f51be770333460405161026a92919061377e565b60405180910390a1005b7f6ef95f06320e7a25a04a175ca677b7052bdd97131872c2192525a629f51be77033346040516102a592919061377e565b60405180910390a1005b3480156102bb57600080fd5b506102d660048036038101906102d19190613813565b61099c565b6040516102e3919061385b565b60405180910390f35b3480156102f857600080fd5b50610313600480360381019061030e91906138a2565b610a7e565b005b34801561032157600080fd5b5061032a610b5a565b6040516103379190613968565b60405180910390f35b34801561034c57600080fd5b50610367600480360381019061036291906139b6565b610bec565b604051610374919061385b565b60405180910390f35b34801561038957600080fd5b506103a4600480360381019061039f91906138a2565b610cbe565b6040516103b191906139e3565b60405180910390f35b3480156103c657600080fd5b506103e160048036038101906103dc91906139fe565b610d43565b005b3480156103ef57600080fd5b506103f8610e5b565b6040516104059190613a3e565b60405180910390f35b34801561041a57600080fd5b50610423610e63565b6040516104309190613a3e565b60405180910390f35b34801561044557600080fd5b50610460600480360381019061045b9190613a97565b610e74565b005b34801561046e57600080fd5b5061048960048036038101906104849190613ac4565b6110dc565b005b61049361113c565b005b3480156104a157600080fd5b506104aa611267565b6040516104b79190613a3e565b60405180910390f35b3480156104cc57600080fd5b506104e760048036038101906104e29190613ac4565b611271565b005b3480156104f557600080fd5b50610510600480360381019061050b9190613b43565b611291565b005b34801561051e57600080fd5b50610539600480360381019061053491906138a2565b611368565b6040516105499493929190613c35565b60405180910390f35b34801561055e57600080fd5b50610579600480360381019061057491906138a2565b611489565b60405161058691906139e3565b60405180910390f35b34801561059b57600080fd5b506105b660048036038101906105b191906139b6565b61153b565b005b3480156105c457600080fd5b506105df60048036038101906105da91906139b6565b611633565b6040516105ec9190613a3e565b60405180910390f35b34801561060157600080fd5b5061060a6116eb565b005b34801561061857600080fd5b50610621611773565b005b34801561062f57600080fd5b5061064a600480360381019061064591906138a2565b611869565b60405161065791906139e3565b60405180910390f35b34801561066c57600080fd5b506106756118b1565b60405161068291906139e3565b60405180910390f35b34801561069757600080fd5b506106a06118da565b6040516106ad9190613968565b60405180910390f35b3480156106c257600080fd5b506106dd60048036038101906106d891906139b6565b61196c565b6040516106ea9190613a3e565b60405180910390f35b3480156106ff57600080fd5b5061071a600480360381019061071591906138a2565b6119b5565b60405161072791906139e3565b60405180910390f35b34801561073c57600080fd5b5061075760048036038101906107529190613b43565b6119e8565b005b34801561076557600080fd5b50610780600480360381019061077b91906139fe565b6119fe565b005b34801561078e57600080fd5b506107a960048036038101906107a49190613db7565b611ac5565b005b3480156107b757600080fd5b506107d260048036038101906107cd91906138a2565b611b27565b6040516107df9190613968565b60405180910390f35b3480156107f457600080fd5b506107fd611bce565b60405161080a91906139e3565b60405180910390f35b34801561081f57600080fd5b5061083a600480360381019061083591906139b6565b611bf8565b6040516108479190613a3e565b60405180910390f35b34801561085c57600080fd5b50610877600480360381019061087291906139b6565b611c41565b005b34801561088557600080fd5b506108a0600480360381019061089b9190613e3a565b611d23565b005b3480156108ae57600080fd5b506108b7611f13565b6040516108c49190613a3e565b60405180910390f35b3480156108d957600080fd5b506108e2611f1d565b005b3480156108f057600080fd5b5061090b600480360381019061090691906139b6565b612013565b005b34801561091957600080fd5b50610934600480360381019061092f9190613e7a565b6120f5565b604051610941919061385b565b60405180910390f35b34801561095657600080fd5b50610971600480360381019061096c9190613ee6565b612189565b005b34801561097f57600080fd5b5061099a600480360381019061099591906139b6565b612370565b005b60007f80ac58cd000000000000000000000000000000000000000000000000000000007bffffffffffffffffffffffffffffffffffffffffffffffffffffffff1916827bffffffffffffffffffffffffffffffffffffffffffffffffffffffff19161480610a6757507f5b5e139f000000000000000000000000000000000000000000000000000000007bffffffffffffffffffffffffffffffffffffffffffffffffffffffff1916827bffffffffffffffffffffffffffffffffffffffffffffffffffffffff1916145b80610a775750610a7682612468565b5b9050919050565b610a866124d2565b73ffffffffffffffffffffffffffffffffffffffff16610aa46118b1565b73ffffffffffffffffffffffffffffffffffffffff1614610afa576040517f08c379a0000000000000000000000000000000000000000000000000000000008152600401610af190613f72565b60405180910390fd5b6000600f549050670de0b6b3a764000082610b159190613fc1565b600f819055507fae0eb5ccf175dada51db9cc076ff0598c8facdee74dac2bc56f64f8984a83eea81600f54604051610b4e92919061401b565b60405180910390a15050565b606060028054610b6990614073565b80601f0160208091040260200160405190810160405280929190818152602001828054610b9590614073565b8015610be25780601f10610bb757610100808354040283529160200191610be2565b820191906000526020600020905b815481529060010190602001808311610bc557829003601f168201915b5050505050905090565b6000610bf66124d2565b73ffffffffffffffffffffffffffffffffffffffff16610c146118b1565b73ffffffffffffffffffffffffffffffffffffffff1614610c6a576040517f08c379a0000000000000000000000000000000000000000000000000000000008152600401610c6190613f72565b60405180910390fd5b600160008373ffffffffffffffffffffffffffffffffffffffff1673ffffffffffffffffffffffffffffffffffffffff16815260200190815260200160002060009054906101000a900460ff169050919050565b6000610cc9826124da565b610d08576040517f08c379a0000000000000000000000000000000000000000000000000000000008152600401610cff90614117565b60405180910390fd5b6006600083815260200190815260200160002060009054906101000a900473ffffffffffffffffffffffffffffffffffffffff169050919050565b6000610d4e82611489565b90508073ffffffffffffffffffffffffffffffffffffffff168373ffffffffffffffffffffffffffffffffffffffff161415610dbf576040517f08c379a0000000000000000000000000000000000000000000000000000000008152600401610db6906141a9565b60405180910390fd5b8073ffffffffffffffffffffffffffffffffffffffff16610dde6124d2565b73ffffffffffffffffffffffffffffffffffffffff161480610e0d5750610e0c81610e076124d2565b6120f5565b5b610e4c576040517f08c379a0000000000000000000000000000000000000000000000000000000008152600401610e439061423b565b60405180910390fd5b610e568383612546565b505050565b600047905090565b6000610e6f600e6125ff565b905090565b6000600a60008373ffffffffffffffffffffffffffffffffffffffff1673ffffffffffffffffffffffffffffffffffffffff1681526020019081526020016000205411610ef6576040517f08c379a0000000000000000000000000000000000000000000000000000000008152600401610eed906142cd565b60405180910390fd5b600060095447610f0691906142ed565b90506000600b60008473ffffffffffffffffffffffffffffffffffffffff1673ffffffffffffffffffffffffffffffffffffffff16815260200190815260200160002054600854600a60008673ffffffffffffffffffffffffffffffffffffffff1673ffffffffffffffffffffffffffffffffffffffff1681526020019081526020016000205484610f989190613fc1565b610fa29190614372565b610fac91906143a3565b90506000811415610ff2576040517f08c379a0000000000000000000000000000000000000000000000000000000008152600401610fe990614449565b60405180910390fd5b80600b60008573ffffffffffffffffffffffffffffffffffffffff1673ffffffffffffffffffffffffffffffffffffffff1681526020019081526020016000205461103d91906142ed565b600b60008573ffffffffffffffffffffffffffffffffffffffff1673ffffffffffffffffffffffffffffffffffffffff168152602001908152602001600020819055508060095461108e91906142ed565b60098190555061109e838261260d565b7fdf20fd1e76bc69d672e4814fafb2c449bba3a5369d8359adf9e05e6fde87b05683826040516110cf9291906144c8565b60405180910390a1505050565b6110ed6110e76124d2565b82612701565b61112c576040517f08c379a000000000000000000000000000000000000000000000000000000000815260040161112390614563565b60405180910390fd5b6111378383836127df565b505050565b601460009054906101000a900460ff1661118b576040517f08c379a0000000000000000000000000000000000000000000000000000000008152600401611182906145cf565b60405180910390fd5b600f5434146111cf576040517f08c379a00000000000000000000000000000000000000000000000000000000081526004016111c69061463b565b60405180910390fd5b60006112106040518060400160405280600781526020017f746573743132330000000000000000000000000000000000000000000000000081525082612a3b565b6112233361121e600e6125ff565b612c7d565b61122d600e612c9b565b60128160ff16815481106112445761124361465b565b5b90600052602060002001600081548092919061125f9061468a565b919050555050565b6000600854905090565b61128c83838360405180602001604052806000815250611ac5565b505050565b6112996124d2565b73ffffffffffffffffffffffffffffffffffffffff166112b76118b1565b73ffffffffffffffffffffffffffffffffffffffff161461130d576040517f08c379a000000000000000000000000000000000000000000000000000000000815260040161130490613f72565b60405180910390fd5b80600160008473ffffffffffffffffffffffffffffffffffffffff1673ffffffffffffffffffffffffffffffffffffffff16815260200190815260200160002060006101000a81548160ff0219169083151502179055505050565b601a818154811061137857600080fd5b90600052602060002090600802016000915090508060000160009054906101000a900460ff16908060010180546113ae90614073565b80601f01602080910402602001604051908101604052809291908181526020018280546113da90614073565b80156114275780601f106113fc57610100808354040283529160200191611427565b820191906000526020600020905b81548152906001019060200180831161140a57829003601f168201915b505050505090806002016040518060a001604052908160008201548152602001600182015481526020016002820154815260200160038201548152602001600482015481525050908060070160009054906101000a900463ffffffff16905084565b6000806004600084815260200190815260200160002060009054906101000a900473ffffffffffffffffffffffffffffffffffffffff169050600073ffffffffffffffffffffffffffffffffffffffff168173ffffffffffffffffffffffffffffffffffffffff161415611532576040517f08c379a000000000000000000000000000000000000000000000000000000000815260040161152990614745565b60405180910390fd5b80915050919050565b6115436124d2565b73ffffffffffffffffffffffffffffffffffffffff16611561611bce565b73ffffffffffffffffffffffffffffffffffffffff16146115b7576040517f08c379a00000000000000000000000000000000000000000000000000000000081526004016115ae906147d7565b60405180910390fd5b600073ffffffffffffffffffffffffffffffffffffffff168173ffffffffffffffffffffffffffffffffffffffff161415611627576040517f08c379a000000000000000000000000000000000000000000000000000000000815260040161161e90614869565b60405180910390fd5b61163081612cb1565b50565b60008073ffffffffffffffffffffffffffffffffffffffff168273ffffffffffffffffffffffffffffffffffffffff1614156116a4576040517f08c379a000000000000000000000000000000000000000000000000000000000815260040161169b906148fb565b60405180910390fd5b600560008373ffffffffffffffffffffffffffffffffffffffff1673ffffffffffffffffffffffffffffffffffffffff168152602001908152602001600020549050919050565b6116f36124d2565b73ffffffffffffffffffffffffffffffffffffffff166117116118b1565b73ffffffffffffffffffffffffffffffffffffffff1614611767576040517f08c379a000000000000000000000000000000000000000000000000000000000815260040161175e90613f72565b60405180910390fd5b6117716000612d77565b565b61177b6124d2565b73ffffffffffffffffffffffffffffffffffffffff166117996118b1565b73ffffffffffffffffffffffffffffffffffffffff16146117ef576040517f08c379a00000000000000000000000000000000000000000000000000000000081526004016117e690613f72565b60405180910390fd5b6000601460009054906101000a900460ff1690506000601460006101000a81548160ff0219169083151502179055507f1ab1d89be1fd19dcd21c73f1d6e927e3f148097e8691bbba925bd85e34e1f0e381601460009054906101000a900460ff1660405161185e92919061491b565b60405180910390a150565b6000600c828154811061187f5761187e61465b565b5b9060005260206000200160009054906101000a900473ffffffffffffffffffffffffffffffffffffffff169050919050565b60008060009054906101000a900473ffffffffffffffffffffffffffffffffffffffff16905090565b6060600380546118e990614073565b80601f016020809104026020016040519081016040528092919081815260200182805461191590614073565b80156119625780601f1061193757610100808354040283529160200191611962565b820191906000526020600020905b81548152906001019060200180831161194557829003601f168201915b5050505050905090565b6000600b60008373ffffffffffffffffffffffffffffffffffffffff1673ffffffffffffffffffffffffffffffffffffffff168152602001908152602001600020549050919050565b601b6020528060005260406000206000915054906101000a900473ffffffffffffffffffffffffffffffffffffffff1681565b6119fa6119f36124d2565b8383612e3b565b5050565b611a066124d2565b73ffffffffffffffffffffffffffffffffffffffff16611a24611bce565b73ffffffffffffffffffffffffffffffffffffffff1614611a7a576040517f08c379a0000000000000000000000000000000000000000000000000000000008152600401611a71906147d7565b60405180910390fd5b8173ffffffffffffffffffffffffffffffffffffffff166108fc829081150290604051600060405180830381858888f19350505050158015611ac0573d6000803e3d6000fd5b505050565b611ad6611ad06124d2565b83612701565b611b15576040517f08c379a0000000000000000000000000000000000000000000000000000000008152600401611b0c90614563565b60405180910390fd5b611b2184848484612fa8565b50505050565b6060611b32826124da565b611b71576040517f08c379a0000000000000000000000000000000000000000000000000000000008152600401611b68906149b6565b60405180910390fd5b6000611b7b613004565b90506000815111611b9b5760405180602001604052806000815250611bc6565b80611ba58461301b565b604051602001611bb6929190614a12565b6040516020818303038152906040525b915050919050565b6000600d60009054906101000a900473ffffffffffffffffffffffffffffffffffffffff16905090565b6000600a60008373ffffffffffffffffffffffffffffffffffffffff1673ffffffffffffffffffffffffffffffffffffffff168152602001908152602001600020549050919050565b611c496124d2565b73ffffffffffffffffffffffffffffffffffffffff16611c676118b1565b73ffffffffffffffffffffffffffffffffffffffff1614611cbd576040517f08c379a0000000000000000000000000000000000000000000000000000000008152600401611cb490613f72565b60405180910390fd5b6017819080600181540180825580915050600190039060005260206000200160009091909190916101000a81548173ffffffffffffffffffffffffffffffffffffffff021916908373ffffffffffffffffffffffffffffffffffffffff16021790555050565b611d2b6124d2565b73ffffffffffffffffffffffffffffffffffffffff16611d496118b1565b73ffffffffffffffffffffffffffffffffffffffff1614611d9f576040517f08c379a0000000000000000000000000000000000000000000000000000000008152600401611d9690613f72565b60405180910390fd5b6000611dab600e6125ff565b90506011548382611dbc91906142ed565b1115611dfd576040517f08c379a0000000000000000000000000000000000000000000000000000000008152600401611df490614a82565b60405180910390fd5b60005b83811015611f0d57611e486040518060400160405280600d81526020017f4769667465642058657269616e000000000000000000000000000000000000008152506004612a3b565b611e9183611e56600e6125ff565b6040518060400160405280600e81526020017f53656e742077697468206c6f766500000000000000000000000000000000000081525061317c565b611e9b600e612c9b565b7f9e65f904d44071dd92297e58d905a574d2057687d3098137d9c0aefccfd1cd23601a611ec8600e6125ff565b81548110611ed957611ed861465b565b5b9060005260206000209060080201604051611ef49190614d03565b60405180910390a180611f069061468a565b9050611e00565b50505050565b6000600954905090565b611f256124d2565b73ffffffffffffffffffffffffffffffffffffffff16611f436118b1565b73ffffffffffffffffffffffffffffffffffffffff1614611f99576040517f08c379a0000000000000000000000000000000000000000000000000000000008152600401611f9090613f72565b60405180910390fd5b6000601460009054906101000a900460ff1690506001601460006101000a81548160ff0219169083151502179055507f1ab1d89be1fd19dcd21c73f1d6e927e3f148097e8691bbba925bd85e34e1f0e381601460009054906101000a900460ff1660405161200892919061491b565b60405180910390a150565b61201b6124d2565b73ffffffffffffffffffffffffffffffffffffffff166120396118b1565b73ffffffffffffffffffffffffffffffffffffffff161461208f576040517f08c379a000000000000000000000000000000000000000000000000000000000815260040161208690613f72565b60405180910390fd5b6016819080600181540180825580915050600190039060005260206000200160009091909190916101000a81548173ffffffffffffffffffffffffffffffffffffffff021916908373ffffffffffffffffffffffffffffffffffffffff16021790555050565b6000600760008473ffffffffffffffffffffffffffffffffffffffff1673ffffffffffffffffffffffffffffffffffffffff16815260200190815260200160002060008373ffffffffffffffffffffffffffffffffffffffff1673ffffffffffffffffffffffffffffffffffffffff16815260200190815260200160002060009054906101000a900460ff16905092915050565b81601b600082815260200190815260200160002060009054906101000a900473ffffffffffffffffffffffffffffffffffffffff1673ffffffffffffffffffffffffffffffffffffffff163373ffffffffffffffffffffffffffffffffffffffff16146121f557600080fd5b601b600084815260200190815260200160002060009054906101000a900473ffffffffffffffffffffffffffffffffffffffff1673ffffffffffffffffffffffffffffffffffffffff163373ffffffffffffffffffffffffffffffffffffffff161461226057600080fd5b6000601a84815481106122765761227561465b565b5b906000526020600020906008020190506122d0816002016040518060a001604052908160008201548152602001600182015481526020016002820154815260200160038201548152602001600482015481525050846131d7565b601a85815481106122e4576122e361465b565b5b906000526020600020906008020160020160008201518160000155602082015181600101556040820151816002015560608201518160030155608082015181600401559050506123338161329b565b7ff62e643e5484d464b80d6620d339b780f2c5a5965e2387cd5311b293099b5ed6816040516123629190614d9f565b60405180910390a150505050565b6123786124d2565b73ffffffffffffffffffffffffffffffffffffffff166123966118b1565b73ffffffffffffffffffffffffffffffffffffffff16146123ec576040517f08c379a00000000000000000000000000000000000000000000000000000000081526004016123e390613f72565b60405180910390fd5b600073ffffffffffffffffffffffffffffffffffffffff168173ffffffffffffffffffffffffffffffffffffffff16141561245c576040517f08c379a000000000000000000000000000000000000000000000000000000000815260040161245390614e33565b60405180910390fd5b61246581612d77565b50565b60007f01ffc9a7000000000000000000000000000000000000000000000000000000007bffffffffffffffffffffffffffffffffffffffffffffffffffffffff1916827bffffffffffffffffffffffffffffffffffffffffffffffffffffffff1916149050919050565b600033905090565b60008073ffffffffffffffffffffffffffffffffffffffff166004600084815260200190815260200160002060009054906101000a900473ffffffffffffffffffffffffffffffffffffffff1673ffffffffffffffffffffffffffffffffffffffff1614159050919050565b816006600083815260200190815260200160002060006101000a81548173ffffffffffffffffffffffffffffffffffffffff021916908373ffffffffffffffffffffffffffffffffffffffff160217905550808273ffffffffffffffffffffffffffffffffffffffff166125b983611489565b73ffffffffffffffffffffffffffffffffffffffff167f8c5be1e5ebec7d5bd14f71427d1e84f3dd0314c0f7b2291e5b200ac8c7c3b92560405160405180910390a45050565b600081600001549050919050565b80471015612650576040517f08c379a000000000000000000000000000000000000000000000000000000000815260040161264790614e9f565b60405180910390fd5b60008273ffffffffffffffffffffffffffffffffffffffff168260405161267690614ef0565b60006040518083038185875af1925050503d80600081146126b3576040519150601f19603f3d011682016040523d82523d6000602084013e6126b8565b606091505b50509050806126fc576040517f08c379a00000000000000000000000000000000000000000000000000000000081526004016126f390614f77565b60405180910390fd5b505050565b600061270c826124da565b61274b576040517f08c379a000000000000000000000000000000000000000000000000000000000815260040161274290615009565b60405180910390fd5b600061275683611489565b90508073ffffffffffffffffffffffffffffffffffffffff168473ffffffffffffffffffffffffffffffffffffffff1614806127c557508373ffffffffffffffffffffffffffffffffffffffff166127ad84610cbe565b73ffffffffffffffffffffffffffffffffffffffff16145b806127d657506127d581856120f5565b5b91505092915050565b8273ffffffffffffffffffffffffffffffffffffffff166127ff82611489565b73ffffffffffffffffffffffffffffffffffffffff1614612855576040517f08c379a000000000000000000000000000000000000000000000000000000000815260040161284c9061509b565b60405180910390fd5b600073ffffffffffffffffffffffffffffffffffffffff168273ffffffffffffffffffffffffffffffffffffffff1614156128c5576040517f08c379a00000000000000000000000000000000000000000000000000000000081526004016128bc9061512d565b60405180910390fd5b6128d08383836132ce565b6128db600082612546565b6001600560008573ffffffffffffffffffffffffffffffffffffffff1673ffffffffffffffffffffffffffffffffffffffff168152602001908152602001600020600082825461292b91906143a3565b925050819055506001600560008473ffffffffffffffffffffffffffffffffffffffff1673ffffffffffffffffffffffffffffffffffffffff168152602001908152602001600020600082825461298291906142ed565b92505081905550816004600083815260200190815260200160002060006101000a81548173ffffffffffffffffffffffffffffffffffffffff021916908373ffffffffffffffffffffffffffffffffffffffff160217905550808273ffffffffffffffffffffffffffffffffffffffff168473ffffffffffffffffffffffffffffffffffffffff167fddf252ad1be2c89b69c2b068fc378daa952ba7f163c4a11628f55a4df523b3ef60405160405180910390a4505050565b60006040518060a00160405280600160ff168152602001600160ff168152602001600160ff168152602001600160ff168152602001600160ff168152509050601a60405180608001604052808460ff168152602001858152602001838152602001600042612aa991906142ed565b63ffffffff16815250908060018154018082558091505060019003906000526020600020906008020160009091909190915060008201518160000160006101000a81548160ff021916908360ff1602179055506020820151816001019080519060200190612b18929190613652565b506040820151816002016000820151816000015560208201518160010155604082015181600201556060820151816003015560808201518160040155505060608201518160070160006101000a81548163ffffffff021916908363ffffffff160217905550505060006001601a80549050612b9391906143a3565b905033601b600083815260200190815260200160002060006101000a81548173ffffffffffffffffffffffffffffffffffffffff021916908373ffffffffffffffffffffffffffffffffffffffff160217905550601c60003373ffffffffffffffffffffffffffffffffffffffff1673ffffffffffffffffffffffffffffffffffffffff1681526020019081526020016000206000815480929190612c379061468a565b91905055507f970005fc3d849764560b47ede72020a803c89d15a43e4fadd07024c8f74b6d69818584604051612c6f9392919061514d565b60405180910390a150505050565b612c9782826040518060200160405280600081525061317c565b5050565b6001816000016000828254019250508190555050565b6000600d60009054906101000a900473ffffffffffffffffffffffffffffffffffffffff16905081600d60006101000a81548173ffffffffffffffffffffffffffffffffffffffff021916908373ffffffffffffffffffffffffffffffffffffffff1602179055508173ffffffffffffffffffffffffffffffffffffffff168173ffffffffffffffffffffffffffffffffffffffff167f2cfca82ac51c2fc6b6db547820d28d526a505e12d230afb8bf112a5aeefa9a4c60405160405180910390a35050565b60008060009054906101000a900473ffffffffffffffffffffffffffffffffffffffff169050816000806101000a81548173ffffffffffffffffffffffffffffffffffffffff021916908373ffffffffffffffffffffffffffffffffffffffff1602179055508173ffffffffffffffffffffffffffffffffffffffff168173ffffffffffffffffffffffffffffffffffffffff167f8be0079c531659141344cd1fd0a4f28419497f9722a3daafe3b4186f6b6457e060405160405180910390a35050565b8173ffffffffffffffffffffffffffffffffffffffff168373ffffffffffffffffffffffffffffffffffffffff161415612eaa576040517f08c379a0000000000000000000000000000000000000000000000000000000008152600401612ea1906151d7565b60405180910390fd5b80600760008573ffffffffffffffffffffffffffffffffffffffff1673ffffffffffffffffffffffffffffffffffffffff16815260200190815260200160002060008473ffffffffffffffffffffffffffffffffffffffff1673ffffffffffffffffffffffffffffffffffffffff16815260200190815260200160002060006101000a81548160ff0219169083151502179055508173ffffffffffffffffffffffffffffffffffffffff168373ffffffffffffffffffffffffffffffffffffffff167f17307eab39ab6107e8899845ad3d59bd9653f200f220920489ca2b5937696c3183604051612f9b919061385b565b60405180910390a3505050565b612fb38484846127df565b612fbf848484846132d3565b612ffe576040517f08c379a0000000000000000000000000000000000000000000000000000000008152600401612ff590615269565b60405180910390fd5b50505050565b606060405180602001604052806000815250905090565b60606000821415613063576040518060400160405280600181526020017f30000000000000000000000000000000000000000000000000000000000000008152509050613177565b600082905060005b6000821461309557808061307e9061468a565b915050600a8261308e9190614372565b915061306b565b60008167ffffffffffffffff8111156130b1576130b0613c8c565b5b6040519080825280601f01601f1916602001820160405280156130e35781602001600182028036833780820191505090505b5090505b60008514613170576001826130fc91906143a3565b9150600a8561310b9190615289565b603061311791906142ed565b60f81b81838151811061312d5761312c61465b565b5b60200101907effffffffffffffffffffffffffffffffffffffffffffffffffffffffffffff1916908160001a905350600a856131699190614372565b94506130e7565b8093505050505b919050565b613186838361345b565b61319360008484846132d3565b6131d2576040517f08c379a00000000000000000000000000000000000000000000000000000000081526004016131c990615269565b60405180910390fd5b505050565b6131df6136d8565b600083905060006001905062093a808460ff161415613290576040518060a0016040528061321a83856000015161362990919063ffffffff16565b815260200161323683856020015161362990919063ffffffff16565b815260200161325283856040015161362990919063ffffffff16565b815260200161326e83856060015161362990919063ffffffff16565b815260200161328a83856080015161362990919063ffffffff16565b81525091505b819250505092915050565b601554426132a991906142ed565b8160070160006101000a81548163ffffffff021916908363ffffffff16021790555050565b505050565b60006132f48473ffffffffffffffffffffffffffffffffffffffff1661363f565b1561344e578373ffffffffffffffffffffffffffffffffffffffff1663150b7a0261331d6124d2565b8786866040518563ffffffff1660e01b815260040161333f949392919061530f565b6020604051808303816000875af192505050801561337b57506040513d601f19601f820116820180604052508101906133789190615370565b60015b6133fe573d80600081146133ab576040519150601f19603f3d011682016040523d82523d6000602084013e6133b0565b606091505b506000815114156133f6576040517f08c379a00000000000000000000000000000000000000000000000000000000081526004016133ed90615269565b60405180910390fd5b805181602001fd5b63150b7a0260e01b7bffffffffffffffffffffffffffffffffffffffffffffffffffffffff1916817bffffffffffffffffffffffffffffffffffffffffffffffffffffffff191614915050613453565b600190505b949350505050565b600073ffffffffffffffffffffffffffffffffffffffff168273ffffffffffffffffffffffffffffffffffffffff1614156134cb576040517f08c379a00000000000000000000000000000000000000000000000000000000081526004016134c2906153e9565b60405180910390fd5b6134d4816124da565b15613514576040517f08c379a000000000000000000000000000000000000000000000000000000000815260040161350b90615455565b60405180910390fd5b613520600083836132ce565b6001600560008473ffffffffffffffffffffffffffffffffffffffff1673ffffffffffffffffffffffffffffffffffffffff168152602001908152602001600020600082825461357091906142ed565b92505081905550816004600083815260200190815260200160002060006101000a81548173ffffffffffffffffffffffffffffffffffffffff021916908373ffffffffffffffffffffffffffffffffffffffff160217905550808273ffffffffffffffffffffffffffffffffffffffff16600073ffffffffffffffffffffffffffffffffffffffff167fddf252ad1be2c89b69c2b068fc378daa952ba7f163c4a11628f55a4df523b3ef60405160405180910390a45050565b6000818361363791906142ed565b905092915050565b600080823b905060008111915050919050565b82805461365e90614073565b90600052602060002090601f01602090048101928261368057600085556136c7565b82601f1061369957805160ff19168380011785556136c7565b828001600101855582156136c7579182015b828111156136c65782518255916020019190600101906136ab565b5b5090506136d49190613707565b5090565b6040518060a0016040528060008152602001600081526020016000815260200160008152602001600081525090565b5b80821115613720576000816000905550600101613708565b5090565b600073ffffffffffffffffffffffffffffffffffffffff82169050919050565b600061374f82613724565b9050919050565b61375f81613744565b82525050565b6000819050919050565b61377881613765565b82525050565b60006040820190506137936000830185613756565b6137a0602083018461376f565b9392505050565b6000604051905090565b600080fd5b600080fd5b60007fffffffff0000000000000000000000000000000000000000000000000000000082169050919050565b6137f0816137bb565b81146137fb57600080fd5b50565b60008135905061380d816137e7565b92915050565b600060208284031215613829576138286137b1565b5b6000613837848285016137fe565b91505092915050565b60008115159050919050565b61385581613840565b82525050565b6000602082019050613870600083018461384c565b92915050565b61387f81613765565b811461388a57600080fd5b50565b60008135905061389c81613876565b92915050565b6000602082840312156138b8576138b76137b1565b5b60006138c68482850161388d565b91505092915050565b600081519050919050565b600082825260208201905092915050565b60005b838110156139095780820151818401526020810190506138ee565b83811115613918576000848401525b50505050565b6000601f19601f8301169050919050565b600061393a826138cf565b61394481856138da565b93506139548185602086016138eb565b61395d8161391e565b840191505092915050565b60006020820190508181036000830152613982818461392f565b905092915050565b61399381613744565b811461399e57600080fd5b50565b6000813590506139b08161398a565b92915050565b6000602082840312156139cc576139cb6137b1565b5b60006139da848285016139a1565b91505092915050565b60006020820190506139f86000830184613756565b92915050565b60008060408385031215613a1557613a146137b1565b5b6000613a23858286016139a1565b9250506020613a348582860161388d565b9150509250929050565b6000602082019050613a53600083018461376f565b92915050565b6000613a6482613724565b9050919050565b613a7481613a59565b8114613a7f57600080fd5b50565b600081359050613a9181613a6b565b92915050565b600060208284031215613aad57613aac6137b1565b5b6000613abb84828501613a82565b91505092915050565b600080600060608486031215613add57613adc6137b1565b5b6000613aeb868287016139a1565b9350506020613afc868287016139a1565b9250506040613b0d8682870161388d565b9150509250925092565b613b2081613840565b8114613b2b57600080fd5b50565b600081359050613b3d81613b17565b92915050565b60008060408385031215613b5a57613b596137b1565b5b6000613b68858286016139a1565b9250506020613b7985828601613b2e565b9150509250929050565b600060ff82169050919050565b613b9981613b83565b82525050565b613ba881613765565b82525050565b60a082016000820151613bc46000850182613b9f565b506020820151613bd76020850182613b9f565b506040820151613bea6040850182613b9f565b506060820151613bfd6060850182613b9f565b506080820151613c106080850182613b9f565b50505050565b600063ffffffff82169050919050565b613c2f81613c16565b82525050565b600061010082019050613c4b6000830187613b90565b8181036020830152613c5d818661392f565b9050613c6c6040830185613bae565b613c7960e0830184613c26565b95945050505050565b600080fd5b600080fd5b7f4e487b7100000000000000000000000000000000000000000000000000000000600052604160045260246000fd5b613cc48261391e565b810181811067ffffffffffffffff82111715613ce357613ce2613c8c565b5b80604052505050565b6000613cf66137a7565b9050613d028282613cbb565b919050565b600067ffffffffffffffff821115613d2257613d21613c8c565b5b613d2b8261391e565b9050602081019050919050565b82818337600083830152505050565b6000613d5a613d5584613d07565b613cec565b905082815260208101848484011115613d7657613d75613c87565b5b613d81848285613d38565b509392505050565b600082601f830112613d9e57613d9d613c82565b5b8135613dae848260208601613d47565b91505092915050565b60008060008060808587031215613dd157613dd06137b1565b5b6000613ddf878288016139a1565b9450506020613df0878288016139a1565b9350506040613e018782880161388d565b925050606085013567ffffffffffffffff811115613e2257613e216137b6565b5b613e2e87828801613d89565b91505092959194509250565b60008060408385031215613e5157613e506137b1565b5b6000613e5f8582860161388d565b9250506020613e70858286016139a1565b9150509250929050565b60008060408385031215613e9157613e906137b1565b5b6000613e9f858286016139a1565b9250506020613eb0858286016139a1565b9150509250929050565b613ec381613b83565b8114613ece57600080fd5b50565b600081359050613ee081613eba565b92915050565b60008060408385031215613efd57613efc6137b1565b5b6000613f0b8582860161388d565b9250506020613f1c85828601613ed1565b9150509250929050565b7f4f776e61626c653a2063616c6c6572206973206e6f7420746865206f776e6572600082015250565b6000613f5c6020836138da565b9150613f6782613f26565b602082019050919050565b60006020820190508181036000830152613f8b81613f4f565b9050919050565b7f4e487b7100000000000000000000000000000000000000000000000000000000600052601160045260246000fd5b6000613fcc82613765565b9150613fd783613765565b9250817fffffffffffffffffffffffffffffffffffffffffffffffffffffffffffffffff04831182151516156140105761400f613f92565b5b828202905092915050565b6000604082019050614030600083018561376f565b61403d602083018461376f565b9392505050565b7f4e487b7100000000000000000000000000000000000000000000000000000000600052602260045260246000fd5b6000600282049050600182168061408b57607f821691505b6020821081141561409f5761409e614044565b5b50919050565b7f4552433732313a20617070726f76656420717565727920666f72206e6f6e657860008201527f697374656e7420746f6b656e0000000000000000000000000000000000000000602082015250565b6000614101602c836138da565b915061410c826140a5565b604082019050919050565b60006020820190508181036000830152614130816140f4565b9050919050565b7f4552433732313a20617070726f76616c20746f2063757272656e74206f776e6560008201527f7200000000000000000000000000000000000000000000000000000000000000602082015250565b60006141936021836138da565b915061419e82614137565b604082019050919050565b600060208201905081810360008301526141c281614186565b9050919050565b7f4552433732313a20617070726f76652063616c6c6572206973206e6f74206f7760008201527f6e6572206e6f7220617070726f76656420666f7220616c6c0000000000000000602082015250565b60006142256038836138da565b9150614230826141c9565b604082019050919050565b6000602082019050818103600083015261425481614218565b9050919050565b7f5061796d656e7453706c69747465723a206163636f756e7420686173206e6f2060008201527f7368617265730000000000000000000000000000000000000000000000000000602082015250565b60006142b76026836138da565b91506142c28261425b565b604082019050919050565b600060208201905081810360008301526142e6816142aa565b9050919050565b60006142f882613765565b915061430383613765565b9250827fffffffffffffffffffffffffffffffffffffffffffffffffffffffffffffffff0382111561433857614337613f92565b5b828201905092915050565b7f4e487b7100000000000000000000000000000000000000000000000000000000600052601260045260246000fd5b600061437d82613765565b915061438883613765565b92508261439857614397614343565b5b828204905092915050565b60006143ae82613765565b91506143b983613765565b9250828210156143cc576143cb613f92565b5b828203905092915050565b7f5061796d656e7453706c69747465723a206163636f756e74206973206e6f742060008201527f647565207061796d656e74000000000000000000000000000000000000000000602082015250565b6000614433602b836138da565b915061443e826143d7565b604082019050919050565b6000602082019050818103600083015261446281614426565b9050919050565b6000819050919050565b600061448e61448961448484613724565b614469565b613724565b9050919050565b60006144a082614473565b9050919050565b60006144b282614495565b9050919050565b6144c2816144a7565b82525050565b60006040820190506144dd60008301856144b9565b6144ea602083018461376f565b9392505050565b7f4552433732313a207472616e736665722063616c6c6572206973206e6f74206f60008201527f776e6572206e6f7220617070726f766564000000000000000000000000000000602082015250565b600061454d6031836138da565b9150614558826144f1565b604082019050919050565b6000602082019050818103600083015261457c81614540565b9050919050565b7f4d696e746572206e6f7420616374697665000000000000000000000000000000600082015250565b60006145b96011836138da565b91506145c482614583565b602082019050919050565b600060208201905081810360008301526145e8816145ac565b9050919050565b7f57726f6e6720616d6f756e74206f662061766178000000000000000000000000600082015250565b60006146256014836138da565b9150614630826145ef565b602082019050919050565b6000602082019050818103600083015261465481614618565b9050919050565b7f4e487b7100000000000000000000000000000000000000000000000000000000600052603260045260246000fd5b600061469582613765565b91507fffffffffffffffffffffffffffffffffffffffffffffffffffffffffffffffff8214156146c8576146c7613f92565b5b600182019050919050565b7f4552433732313a206f776e657220717565727920666f72206e6f6e657869737460008201527f656e7420746f6b656e0000000000000000000000000000000000000000000000602082015250565b600061472f6029836138da565b915061473a826146d3565b604082019050919050565b6000602082019050818103600083015261475e81614722565b9050919050565b7f446576656c6f7065723a2063616c6c6572206973206e6f74207468652064657660008201527f656c6f7065720000000000000000000000000000000000000000000000000000602082015250565b60006147c16026836138da565b91506147cc82614765565b604082019050919050565b600060208201905081810360008301526147f0816147b4565b9050919050565b7f446576656c6f7065723a206e657720646576656c6f706572206973207468652060008201527f7a65726f20616464726573730000000000000000000000000000000000000000602082015250565b6000614853602c836138da565b915061485e826147f7565b604082019050919050565b6000602082019050818103600083015261488281614846565b9050919050565b7f4552433732313a2062616c616e636520717565727920666f7220746865207a6560008201527f726f206164647265737300000000000000000000000000000000000000000000602082015250565b60006148e5602a836138da565b91506148f082614889565b604082019050919050565b60006020820190508181036000830152614914816148d8565b9050919050565b6000604082019050614930600083018561384c565b61493d602083018461384c565b9392505050565b7f4552433732314d657461646174613a2055524920717565727920666f72206e6f60008201527f6e6578697374656e7420746f6b656e0000000000000000000000000000000000602082015250565b60006149a0602f836138da565b91506149ab82614944565b604082019050919050565b600060208201905081810360008301526149cf81614993565b9050919050565b600081905092915050565b60006149ec826138cf565b6149f681856149d6565b9350614a068185602086016138eb565b80840191505092915050565b6000614a1e82856149e1565b9150614a2a82846149e1565b91508190509392505050565b7f4d696e742f6f72646572206578636565647320737570706c7900000000000000600082015250565b6000614a6c6019836138da565b9150614a7782614a36565b602082019050919050565b60006020820190508181036000830152614a9b81614a5f565b9050919050565b60008160001c9050919050565b600060ff82169050919050565b6000614acf614aca83614aa2565b614aaf565b9050919050565b614adf81613b83565b82525050565b600082825260208201905092915050565b60008190508160005260206000209050919050565b60008154614b1881614073565b614b228186614ae5565b94506001821660008114614b3d5760018114614b4f57614b82565b60ff1983168652602086019350614b82565b614b5885614af6565b60005b83811015614b7a57815481890152600182019150602081019050614b5b565b808801955050505b50505092915050565b6000819050919050565b6000614ba8614ba383614aa2565b614b8b565b9050919050565b60a082016000808301549050614bc481614b95565b614bd16000860182613b9f565b5060018301549050614be281614b95565b614bef6020860182613b9f565b5060028301549050614c0081614b95565b614c0d6040860182613b9f565b5060038301549050614c1e81614b95565b614c2b6060860182613b9f565b5060048301549050614c3c81614b95565b614c496080860182613b9f565b5050505050565b600063ffffffff82169050919050565b6000614c73614c6e83614aa2565b614c50565b9050919050565b614c8381613c16565b82525050565b600061010083016000808401549050614ca181614abc565b614cae6000870182614ad6565b50600184018583036020870152614cc58382614b0b565b92505060028401614cd96040870182614baf565b5060078401549050614cea81614c60565b614cf760e0870182614c7a565b50819250505092915050565b60006020820190508181036000830152614d1d8184614c89565b905092915050565b600061010083016000808401549050614d3d81614abc565b614d4a6000870182614ad6565b50600184018583036020870152614d618382614b0b565b92505060028401614d756040870182614baf565b5060078401549050614d8681614c60565b614d9360e0870182614c7a565b50819250505092915050565b60006020820190508181036000830152614db98184614d25565b905092915050565b7f4f776e61626c653a206e6577206f776e657220697320746865207a65726f206160008201527f6464726573730000000000000000000000000000000000000000000000000000602082015250565b6000614e1d6026836138da565b9150614e2882614dc1565b604082019050919050565b60006020820190508181036000830152614e4c81614e10565b9050919050565b7f416464726573733a20696e73756666696369656e742062616c616e6365000000600082015250565b6000614e89601d836138da565b9150614e9482614e53565b602082019050919050565b60006020820190508181036000830152614eb881614e7c565b9050919050565b600081905092915050565b50565b6000614eda600083614ebf565b9150614ee582614eca565b600082019050919050565b6000614efb82614ecd565b9150819050919050565b7f416464726573733a20756e61626c6520746f2073656e642076616c75652c207260008201527f6563697069656e74206d61792068617665207265766572746564000000000000602082015250565b6000614f61603a836138da565b9150614f6c82614f05565b604082019050919050565b60006020820190508181036000830152614f9081614f54565b9050919050565b7f4552433732313a206f70657261746f7220717565727920666f72206e6f6e657860008201527f697374656e7420746f6b656e0000000000000000000000000000000000000000602082015250565b6000614ff3602c836138da565b9150614ffe82614f97565b604082019050919050565b6000602082019050818103600083015261502281614fe6565b9050919050565b7f4552433732313a207472616e73666572206f6620746f6b656e2074686174206960008201527f73206e6f74206f776e0000000000000000000000000000000000000000000000602082015250565b60006150856029836138da565b915061509082615029565b604082019050919050565b600060208201905081810360008301526150b481615078565b9050919050565b7f4552433732313a207472616e7366657220746f20746865207a65726f2061646460008201527f7265737300000000000000000000000000000000000000000000000000000000602082015250565b60006151176024836138da565b9150615122826150bb565b604082019050919050565b600060208201905081810360008301526151468161510a565b9050919050565b600060e082019050615162600083018661376f565b8181036020830152615174818561392f565b90506151836040830184613bae565b949350505050565b7f4552433732313a20617070726f766520746f2063616c6c657200000000000000600082015250565b60006151c16019836138da565b91506151cc8261518b565b602082019050919050565b600060208201905081810360008301526151f0816151b4565b9050919050565b7f4552433732313a207472616e7366657220746f206e6f6e20455243373231526560008201527f63656976657220696d706c656d656e7465720000000000000000000000000000602082015250565b60006152536032836138da565b915061525e826151f7565b604082019050919050565b6000602082019050818103600083015261528281615246565b9050919050565b600061529482613765565b915061529f83613765565b9250826152af576152ae614343565b5b828206905092915050565b600081519050919050565b600082825260208201905092915050565b60006152e1826152ba565b6152eb81856152c5565b93506152fb8185602086016138eb565b6153048161391e565b840191505092915050565b60006080820190506153246000830187613756565b6153316020830186613756565b61533e604083018561376f565b818103606083015261535081846152d6565b905095945050505050565b60008151905061536a816137e7565b92915050565b600060208284031215615386576153856137b1565b5b60006153948482850161535b565b91505092915050565b7f4552433732313a206d696e7420746f20746865207a65726f2061646472657373600082015250565b60006153d36020836138da565b91506153de8261539d565b602082019050919050565b60006020820190508181036000830152615402816153c6565b9050919050565b7f4552433732313a20746f6b656e20616c7265616479206d696e74656400000000600082015250565b600061543f601c836138da565b915061544a82615409565b602082019050919050565b6000602082019050818103600083015261546e81615432565b905091905056fea2646970667358221220cfc8c1570ed0496a7e874e987d146e1fef987f331ca598dbd007b6d83ea619a364736f6c634300080a0033",
  "linkReferences": {},
  "deployedLinkReferences": {}
}